{
  "_format": "hh-sol-artifact-1",
  "contractName": "CDPConcrete",
  "sourceName": "contracts/tokens/CDPConcrete.sol",
  "abi": [
    {
      "inputs": [
        {
          "internalType": "string",
          "name": "name_",
          "type": "string"
        },
        {
          "internalType": "string",
          "name": "symbol_",
          "type": "string"
        },
        {
          "internalType": "address",
          "name": "oracleFeeder_",
          "type": "address"
        },
        {
          "internalType": "address",
          "name": "feeTo_",
          "type": "address"
        },
        {
          "internalType": "address",
          "name": "collateralToken_",
          "type": "address"
        },
        {
          "internalType": "address",
          "name": "debtToken_",
          "type": "address"
        },
        {
          "internalType": "uint256",
          "name": "maxLTV_",
          "type": "uint256"
        },
        {
          "internalType": "uint256",
          "name": "cap_",
          "type": "uint256"
        },
        {
          "internalType": "uint256",
          "name": "feeRatio_",
          "type": "uint256"
        },
        {
          "internalType": "uint256",
          "name": "liquidationPenaltyRatio_",
          "type": "uint256"
        },
        {
          "internalType": "uint256",
          "name": "liquidationBufferRatio_",
          "type": "uint256"
        }
      ],
      "stateMutability": "nonpayable",
      "type": "constructor"
    },
    {
      "anonymous": false,
      "inputs": [
        {
          "indexed": true,
          "internalType": "address",
          "name": "owner",
          "type": "address"
        },
        {
          "indexed": true,
          "internalType": "address",
          "name": "approved",
          "type": "address"
        },
        {
          "indexed": true,
          "internalType": "uint256",
          "name": "tokenId",
          "type": "uint256"
        }
      ],
      "name": "Approval",
      "type": "event"
    },
    {
      "anonymous": false,
      "inputs": [
        {
          "indexed": true,
          "internalType": "address",
          "name": "owner",
          "type": "address"
        },
        {
          "indexed": true,
          "internalType": "address",
          "name": "operator",
          "type": "address"
        },
        {
          "indexed": false,
          "internalType": "bool",
          "name": "approved",
          "type": "bool"
        }
      ],
      "name": "ApprovalForAll",
      "type": "event"
    },
    {
      "anonymous": false,
      "inputs": [
        {
          "indexed": true,
          "internalType": "address",
          "name": "account_",
          "type": "address"
        },
        {
          "indexed": true,
          "internalType": "uint256",
          "name": "id_",
          "type": "uint256"
        },
        {
          "indexed": false,
          "internalType": "uint256",
          "name": "amount",
          "type": "uint256"
        }
      ],
      "name": "Borrow",
      "type": "event"
    },
    {
      "anonymous": false,
      "inputs": [
        {
          "indexed": true,
          "internalType": "address",
          "name": "account_",
          "type": "address"
        },
        {
          "indexed": true,
          "internalType": "uint256",
          "name": "id_",
          "type": "uint256"
        }
      ],
      "name": "Close",
      "type": "event"
    },
    {
      "anonymous": false,
      "inputs": [
        {
          "indexed": true,
          "internalType": "address",
          "name": "account_",
          "type": "address"
        },
        {
          "indexed": true,
          "internalType": "uint256",
          "name": "id_",
          "type": "uint256"
        },
        {
          "indexed": false,
          "internalType": "uint256",
          "name": "amount",
          "type": "uint256"
        }
      ],
      "name": "Deposit",
      "type": "event"
    },
    {
      "anonymous": false,
      "inputs": [
        {
          "indexed": true,
          "internalType": "address",
          "name": "account_",
          "type": "address"
        },
        {
          "indexed": true,
          "internalType": "uint256",
          "name": "id_",
          "type": "uint256"
        },
        {
          "indexed": false,
          "internalType": "uint256",
          "name": "debtAmount_",
          "type": "uint256"
        },
        {
          "indexed": false,
          "internalType": "uint256",
          "name": "collateralAmount_",
          "type": "uint256"
        }
      ],
      "name": "Liquidate",
      "type": "event"
    },
    {
      "anonymous": false,
      "inputs": [
        {
          "indexed": true,
          "internalType": "address",
          "name": "account_",
          "type": "address"
        },
        {
          "indexed": true,
          "internalType": "uint256",
          "name": "id_",
          "type": "uint256"
        }
      ],
      "name": "Open",
      "type": "event"
    },
    {
      "anonymous": false,
      "inputs": [
        {
          "indexed": true,
          "internalType": "address",
          "name": "previousOwner",
          "type": "address"
        },
        {
          "indexed": true,
          "internalType": "address",
          "name": "newOwner",
          "type": "address"
        }
      ],
      "name": "OwnershipTransferred",
      "type": "event"
    },
    {
      "anonymous": false,
      "inputs": [
        {
          "indexed": false,
          "internalType": "address",
          "name": "account",
          "type": "address"
        }
      ],
      "name": "Paused",
      "type": "event"
    },
    {
      "anonymous": false,
      "inputs": [
        {
          "indexed": true,
          "internalType": "address",
          "name": "account_",
          "type": "address"
        },
        {
          "indexed": true,
          "internalType": "uint256",
          "name": "id_",
          "type": "uint256"
        },
        {
          "indexed": false,
          "internalType": "uint256",
          "name": "amount",
          "type": "uint256"
        }
      ],
      "name": "Repay",
      "type": "event"
    },
    {
      "anonymous": false,
      "inputs": [
        {
          "indexed": false,
          "internalType": "uint256",
          "name": "prevCap",
          "type": "uint256"
        },
        {
          "indexed": false,
          "internalType": "uint256",
          "name": "currCap",
          "type": "uint256"
        }
      ],
      "name": "SetCap",
      "type": "event"
    },
    {
      "anonymous": false,
      "inputs": [
        {
          "indexed": false,
          "internalType": "uint256",
          "name": "prevFeeRatio",
          "type": "uint256"
        },
        {
          "indexed": false,
          "internalType": "uint256",
          "name": "currFeeRatio",
          "type": "uint256"
        }
      ],
      "name": "SetFeeRatio",
      "type": "event"
    },
    {
      "anonymous": false,
      "inputs": [
        {
          "indexed": false,
          "internalType": "address",
          "name": "prevFeeTo",
          "type": "address"
        },
        {
          "indexed": false,
          "internalType": "address",
          "name": "currFeeTo",
          "type": "address"
        }
      ],
      "name": "SetFeeTo",
      "type": "event"
    },
    {
      "anonymous": false,
      "inputs": [
        {
          "indexed": false,
          "internalType": "uint256",
          "name": "prevLiquidationBufferRatio",
          "type": "uint256"
        },
        {
          "indexed": false,
          "internalType": "uint256",
          "name": "currLiquidationBufferRatio",
          "type": "uint256"
        }
      ],
      "name": "SetLiquidationBufferRatio",
      "type": "event"
    },
    {
      "anonymous": false,
      "inputs": [
        {
          "indexed": false,
          "internalType": "uint256",
          "name": "prevLiquidationPenaltyRatio",
          "type": "uint256"
        },
        {
          "indexed": false,
          "internalType": "uint256",
          "name": "currLiquidationPenaltyRatio",
          "type": "uint256"
        }
      ],
      "name": "SetLiquidationPenaltyRatio",
      "type": "event"
    },
    {
      "anonymous": false,
      "inputs": [
        {
          "indexed": false,
          "internalType": "uint256",
          "name": "prevLiquidationProtocolFeeRatio",
          "type": "uint256"
        },
        {
          "indexed": false,
          "internalType": "uint256",
          "name": "currLiquidationProtocolFeeRatio",
          "type": "uint256"
        }
      ],
      "name": "SetLiquidationProtocolFeeRatio",
      "type": "event"
    },
    {
      "anonymous": false,
      "inputs": [
        {
          "indexed": false,
          "internalType": "uint256",
          "name": "prevMaxLTV",
          "type": "uint256"
        },
        {
          "indexed": false,
          "internalType": "uint256",
          "name": "currMaxLTV",
          "type": "uint256"
        }
      ],
      "name": "SetMaxLTV",
      "type": "event"
    },
    {
      "anonymous": false,
      "inputs": [
        {
          "indexed": true,
          "internalType": "address",
          "name": "from",
          "type": "address"
        },
        {
          "indexed": true,
          "internalType": "address",
          "name": "to",
          "type": "address"
        },
        {
          "indexed": true,
          "internalType": "uint256",
          "name": "tokenId",
          "type": "uint256"
        }
      ],
      "name": "Transfer",
      "type": "event"
    },
    {
      "anonymous": false,
      "inputs": [
        {
          "indexed": false,
          "internalType": "address",
          "name": "account",
          "type": "address"
        }
      ],
      "name": "Unpaused",
      "type": "event"
    },
    {
      "anonymous": false,
      "inputs": [
        {
          "indexed": true,
          "internalType": "uint256",
          "name": "id_",
          "type": "uint256"
        },
        {
          "indexed": false,
          "internalType": "uint256",
          "name": "prevFee",
          "type": "uint256"
        },
        {
          "indexed": false,
          "internalType": "uint256",
          "name": "currFee",
          "type": "uint256"
        },
        {
          "indexed": false,
          "internalType": "uint256",
          "name": "prevTimestamp",
          "type": "uint256"
        },
        {
          "indexed": false,
          "internalType": "uint256",
          "name": "currTimestamp",
          "type": "uint256"
        }
      ],
      "name": "Update",
      "type": "event"
    },
    {
      "anonymous": false,
      "inputs": [
        {
          "indexed": false,
          "internalType": "address",
          "name": "prevOracleFeeder",
          "type": "address"
        },
        {
          "indexed": false,
          "internalType": "address",
          "name": "currOracle",
          "type": "address"
        }
      ],
      "name": "UpdateOracleFeeder",
      "type": "event"
    },
    {
      "anonymous": false,
      "inputs": [
        {
          "indexed": true,
          "internalType": "address",
          "name": "token",
          "type": "address"
        },
        {
          "indexed": false,
          "internalType": "uint256",
          "name": "prevPrice",
          "type": "uint256"
        },
        {
          "indexed": false,
          "internalType": "uint256",
          "name": "currPrice",
          "type": "uint256"
        }
      ],
      "name": "UpdatePrice",
      "type": "event"
    },
    {
      "anonymous": false,
      "inputs": [
        {
          "indexed": true,
          "internalType": "address",
          "name": "account_",
          "type": "address"
        },
        {
          "indexed": true,
          "internalType": "uint256",
          "name": "id_",
          "type": "uint256"
        },
        {
          "indexed": false,
          "internalType": "uint256",
          "name": "amount",
          "type": "uint256"
        }
      ],
      "name": "Withdraw",
      "type": "event"
    },
    {
      "inputs": [
        {
          "internalType": "address",
          "name": "to",
          "type": "address"
        },
        {
          "internalType": "uint256",
          "name": "tokenId",
          "type": "uint256"
        }
      ],
      "name": "approve",
      "outputs": [],
      "stateMutability": "nonpayable",
      "type": "function"
    },
    {
      "inputs": [
        {
          "internalType": "address",
          "name": "owner",
          "type": "address"
        }
      ],
      "name": "balanceOf",
      "outputs": [
        {
          "internalType": "uint256",
          "name": "",
          "type": "uint256"
        }
      ],
      "stateMutability": "view",
      "type": "function"
    },
    {
      "inputs": [
        {
          "internalType": "uint256",
          "name": "id_",
          "type": "uint256"
        },
        {
          "internalType": "uint256",
          "name": "amount_",
          "type": "uint256"
        }
      ],
      "name": "borrow",
      "outputs": [],
      "stateMutability": "nonpayable",
      "type": "function"
    },
    {
      "inputs": [
        {
          "internalType": "uint256",
          "name": "collateralAmount_",
          "type": "uint256"
        },
        {
          "internalType": "uint256",
          "name": "debtAmount_",
          "type": "uint256"
        }
      ],
      "name": "calculatedLtv",
      "outputs": [
        {
          "internalType": "uint256",
          "name": "ltv_",
          "type": "uint256"
        }
      ],
      "stateMutability": "view",
      "type": "function"
    },
    {
      "inputs": [],
      "name": "cap",
      "outputs": [
        {
          "internalType": "uint256",
          "name": "",
          "type": "uint256"
        }
      ],
      "stateMutability": "view",
      "type": "function"
    },
    {
      "inputs": [
        {
          "internalType": "uint256",
          "name": "id_",
          "type": "uint256"
        }
      ],
      "name": "cdp",
      "outputs": [
        {
          "components": [
            {
              "internalType": "uint256",
              "name": "collateral",
              "type": "uint256"
            },
            {
              "internalType": "uint256",
              "name": "debt",
              "type": "uint256"
            },
            {
              "internalType": "uint256",
              "name": "fee",
              "type": "uint256"
            },
            {
              "internalType": "uint256",
              "name": "latestUpdate",
              "type": "uint256"
            }
          ],
          "internalType": "struct ICDP.CollateralizedDebtPosition",
          "name": "",
          "type": "tuple"
        }
      ],
      "stateMutability": "view",
      "type": "function"
    },
    {
      "inputs": [
        {
          "internalType": "uint256",
          "name": "id_",
          "type": "uint256"
        }
      ],
      "name": "close",
      "outputs": [],
      "stateMutability": "nonpayable",
      "type": "function"
    },
    {
      "inputs": [
        {
          "internalType": "uint256",
          "name": "debtAmount_",
          "type": "uint256"
        },
        {
          "internalType": "uint256",
          "name": "ltv_",
          "type": "uint256"
        }
      ],
      "name": "collateralAmountFromDebtWithLtv",
      "outputs": [
        {
          "internalType": "uint256",
          "name": "collateralAmount_",
          "type": "uint256"
        }
      ],
      "stateMutability": "view",
      "type": "function"
    },
    {
      "inputs": [],
      "name": "collateralPrice",
      "outputs": [
        {
          "internalType": "uint256",
          "name": "",
          "type": "uint256"
        }
      ],
      "stateMutability": "view",
      "type": "function"
    },
    {
      "inputs": [],
      "name": "collateralToken",
      "outputs": [
        {
          "internalType": "address",
          "name": "",
          "type": "address"
        }
      ],
      "stateMutability": "view",
      "type": "function"
    },
    {
      "inputs": [
        {
          "internalType": "uint256",
          "name": "id_",
          "type": "uint256"
        }
      ],
      "name": "currentLTV",
      "outputs": [
        {
          "internalType": "uint256",
          "name": "ltv_",
          "type": "uint256"
        }
      ],
      "stateMutability": "view",
      "type": "function"
    },
    {
      "inputs": [
        {
          "internalType": "uint256",
          "name": "collateralAmount_",
          "type": "uint256"
        },
        {
          "internalType": "uint256",
          "name": "ltv_",
          "type": "uint256"
        }
      ],
      "name": "debtAmountFromCollateralToLtv",
      "outputs": [
        {
          "internalType": "uint256",
          "name": "debtAmount_",
          "type": "uint256"
        }
      ],
      "stateMutability": "view",
      "type": "function"
    },
    {
      "inputs": [
        {
          "internalType": "uint256",
          "name": "id_",
          "type": "uint256"
        }
      ],
      "name": "debtAmountRangeWhenLiquidate",
      "outputs": [
        {
          "internalType": "uint256",
          "name": "upperBound_",
          "type": "uint256"
        },
        {
          "internalType": "uint256",
          "name": "lowerBound_",
          "type": "uint256"
        }
      ],
      "stateMutability": "view",
      "type": "function"
    },
    {
      "inputs": [],
      "name": "debtToken",
      "outputs": [
        {
          "internalType": "address",
          "name": "",
          "type": "address"
        }
      ],
      "stateMutability": "view",
      "type": "function"
    },
    {
      "inputs": [
        {
          "internalType": "uint256",
          "name": "id_",
          "type": "uint256"
        },
        {
          "internalType": "uint256",
          "name": "amount_",
          "type": "uint256"
        }
      ],
      "name": "deposit",
      "outputs": [],
      "stateMutability": "nonpayable",
      "type": "function"
    },
    {
      "inputs": [
        {
          "internalType": "uint256",
          "name": "id_",
          "type": "uint256"
        },
        {
          "internalType": "uint256",
          "name": "depositAmount_",
          "type": "uint256"
        },
        {
          "internalType": "uint256",
          "name": "borrowAmount_",
          "type": "uint256"
        }
      ],
      "name": "depositAndBorrow",
      "outputs": [],
      "stateMutability": "nonpayable",
      "type": "function"
    },
    {
      "inputs": [
        {
          "internalType": "uint256",
          "name": "tokenId",
          "type": "uint256"
        }
      ],
      "name": "getApproved",
      "outputs": [
        {
          "internalType": "address",
          "name": "",
          "type": "address"
        }
      ],
      "stateMutability": "view",
      "type": "function"
    },
    {
      "inputs": [],
      "name": "globalHealthFactor",
      "outputs": [
        {
          "internalType": "uint256",
          "name": "health",
          "type": "uint256"
        }
      ],
      "stateMutability": "view",
      "type": "function"
    },
    {
      "inputs": [],
      "name": "globalLTV",
      "outputs": [
        {
          "internalType": "uint256",
          "name": "ltv_",
          "type": "uint256"
        }
      ],
      "stateMutability": "view",
      "type": "function"
    },
    {
      "inputs": [
        {
          "internalType": "uint256",
          "name": "id_",
          "type": "uint256"
        },
        {
          "internalType": "uint256",
          "name": "amount_",
          "type": "uint256"
        }
      ],
      "name": "globalLiquidate",
      "outputs": [],
      "stateMutability": "nonpayable",
      "type": "function"
    },
    {
      "inputs": [
        {
          "internalType": "uint256",
          "name": "id_",
          "type": "uint256"
        }
      ],
      "name": "healthFactor",
      "outputs": [
        {
          "internalType": "uint256",
          "name": "health",
          "type": "uint256"
        }
      ],
      "stateMutability": "view",
      "type": "function"
    },
    {
      "inputs": [],
      "name": "id",
      "outputs": [
        {
          "internalType": "uint256",
          "name": "",
          "type": "uint256"
        }
      ],
      "stateMutability": "view",
      "type": "function"
    },
    {
      "inputs": [
        {
          "internalType": "address",
          "name": "owner",
          "type": "address"
        },
        {
          "internalType": "address",
          "name": "operator",
          "type": "address"
        }
      ],
      "name": "isApprovedForAll",
      "outputs": [
        {
          "internalType": "bool",
          "name": "",
          "type": "bool"
        }
      ],
      "stateMutability": "view",
      "type": "function"
    },
    {
      "inputs": [
        {
          "internalType": "uint256",
          "name": "id_",
          "type": "uint256"
        }
      ],
      "name": "isSafe",
      "outputs": [
        {
          "internalType": "bool",
          "name": "",
          "type": "bool"
        }
      ],
      "stateMutability": "view",
      "type": "function"
    },
    {
      "inputs": [
        {
          "internalType": "uint256",
          "name": "id_",
          "type": "uint256"
        },
        {
          "internalType": "uint256",
          "name": "amount_",
          "type": "uint256"
        }
      ],
      "name": "liquidate",
      "outputs": [],
      "stateMutability": "nonpayable",
      "type": "function"
    },
    {
      "inputs": [],
      "name": "maxLTV",
      "outputs": [
        {
          "internalType": "uint256",
          "name": "",
          "type": "uint256"
        }
      ],
      "stateMutability": "view",
      "type": "function"
    },
    {
      "inputs": [],
      "name": "minimumCollateral",
      "outputs": [
        {
          "internalType": "uint256",
          "name": "",
          "type": "uint256"
        }
      ],
      "stateMutability": "view",
      "type": "function"
    },
    {
      "inputs": [],
      "name": "name",
      "outputs": [
        {
          "internalType": "string",
          "name": "",
          "type": "string"
        }
      ],
      "stateMutability": "view",
      "type": "function"
    },
    {
      "inputs": [],
      "name": "open",
      "outputs": [
        {
          "internalType": "uint256",
          "name": "id_",
          "type": "uint256"
        }
      ],
      "stateMutability": "nonpayable",
      "type": "function"
    },
    {
      "inputs": [
        {
          "internalType": "uint256",
          "name": "amount_",
          "type": "uint256"
        }
      ],
      "name": "openAndDeposit",
      "outputs": [
        {
          "internalType": "uint256",
          "name": "id_",
          "type": "uint256"
        }
      ],
      "stateMutability": "nonpayable",
      "type": "function"
    },
    {
      "inputs": [
        {
          "internalType": "uint256",
          "name": "depositAmount_",
          "type": "uint256"
        },
        {
          "internalType": "uint256",
          "name": "borrowAmount_",
          "type": "uint256"
        }
      ],
      "name": "openAndDepositAndBorrow",
      "outputs": [
        {
          "internalType": "uint256",
          "name": "id_",
          "type": "uint256"
        }
      ],
      "stateMutability": "nonpayable",
      "type": "function"
    },
    {
      "inputs": [],
      "name": "owner",
      "outputs": [
        {
          "internalType": "address",
          "name": "",
          "type": "address"
        }
      ],
      "stateMutability": "view",
      "type": "function"
    },
    {
      "inputs": [
        {
          "internalType": "uint256",
          "name": "tokenId",
          "type": "uint256"
        }
      ],
      "name": "ownerOf",
      "outputs": [
        {
          "internalType": "address",
          "name": "",
          "type": "address"
        }
      ],
      "stateMutability": "view",
      "type": "function"
    },
    {
      "inputs": [],
      "name": "pause",
      "outputs": [],
      "stateMutability": "nonpayable",
      "type": "function"
    },
    {
      "inputs": [],
      "name": "paused",
      "outputs": [
        {
          "internalType": "bool",
          "name": "",
          "type": "bool"
        }
      ],
      "stateMutability": "view",
      "type": "function"
    },
    {
      "inputs": [],
      "name": "renounceOwnership",
      "outputs": [],
      "stateMutability": "nonpayable",
      "type": "function"
    },
    {
      "inputs": [
        {
          "internalType": "uint256",
          "name": "id_",
          "type": "uint256"
        },
        {
          "internalType": "uint256",
          "name": "amount_",
          "type": "uint256"
        }
      ],
      "name": "repay",
      "outputs": [],
      "stateMutability": "nonpayable",
      "type": "function"
    },
    {
      "inputs": [
        {
          "internalType": "uint256",
          "name": "id_",
          "type": "uint256"
        },
        {
          "internalType": "uint256",
          "name": "repayAmount_",
          "type": "uint256"
        },
        {
          "internalType": "uint256",
          "name": "withdrawAmount_",
          "type": "uint256"
        }
      ],
      "name": "repayAndWithdraw",
      "outputs": [],
      "stateMutability": "nonpayable",
      "type": "function"
    },
    {
      "inputs": [
        {
          "internalType": "address",
          "name": "from",
          "type": "address"
        },
        {
          "internalType": "address",
          "name": "to",
          "type": "address"
        },
        {
          "internalType": "uint256",
          "name": "tokenId",
          "type": "uint256"
        }
      ],
      "name": "safeTransferFrom",
      "outputs": [],
      "stateMutability": "nonpayable",
      "type": "function"
    },
    {
      "inputs": [
        {
          "internalType": "address",
          "name": "from",
          "type": "address"
        },
        {
          "internalType": "address",
          "name": "to",
          "type": "address"
        },
        {
          "internalType": "uint256",
          "name": "tokenId",
          "type": "uint256"
        },
        {
          "internalType": "bytes",
          "name": "data",
          "type": "bytes"
        }
      ],
      "name": "safeTransferFrom",
      "outputs": [],
      "stateMutability": "nonpayable",
      "type": "function"
    },
    {
      "inputs": [
        {
          "internalType": "address",
          "name": "operator",
          "type": "address"
        },
        {
          "internalType": "bool",
          "name": "approved",
          "type": "bool"
        }
      ],
      "name": "setApprovalForAll",
      "outputs": [],
      "stateMutability": "nonpayable",
      "type": "function"
    },
    {
      "inputs": [
        {
          "internalType": "uint256",
          "name": "newCap",
          "type": "uint256"
        }
      ],
      "name": "setCap",
      "outputs": [],
      "stateMutability": "nonpayable",
      "type": "function"
    },
    {
      "inputs": [
        {
          "internalType": "uint256",
          "name": "newFeeRatio",
          "type": "uint256"
        }
      ],
      "name": "setFeeRatio",
      "outputs": [],
      "stateMutability": "nonpayable",
      "type": "function"
    },
    {
      "inputs": [
        {
          "internalType": "address",
          "name": "newFeeTo",
          "type": "address"
        }
      ],
      "name": "setFeeTo",
      "outputs": [],
      "stateMutability": "nonpayable",
      "type": "function"
    },
    {
      "inputs": [
        {
          "internalType": "uint256",
          "name": "newLiquidationBufferRatio",
          "type": "uint256"
        }
      ],
      "name": "setLiquidationBufferRatio",
      "outputs": [],
      "stateMutability": "nonpayable",
      "type": "function"
    },
    {
      "inputs": [
        {
          "internalType": "uint256",
          "name": "newLiquidationPenaltyRatio",
          "type": "uint256"
        }
      ],
      "name": "setLiquidationPenaltyRatio",
      "outputs": [],
      "stateMutability": "nonpayable",
      "type": "function"
    },
    {
      "inputs": [
        {
          "internalType": "uint256",
          "name": "newLiquidationProtocolFeeRatio",
          "type": "uint256"
        }
      ],
      "name": "setLiquidationProtocolFeeRatio",
      "outputs": [],
      "stateMutability": "nonpayable",
      "type": "function"
    },
    {
      "inputs": [
        {
          "internalType": "uint256",
          "name": "newMaxLTV",
          "type": "uint256"
        }
      ],
      "name": "setMaxLTV",
      "outputs": [],
      "stateMutability": "nonpayable",
      "type": "function"
    },
    {
      "inputs": [
        {
          "internalType": "bytes4",
          "name": "interfaceId",
          "type": "bytes4"
        }
      ],
      "name": "supportsInterface",
      "outputs": [
        {
          "internalType": "bool",
          "name": "",
          "type": "bool"
        }
      ],
      "stateMutability": "view",
      "type": "function"
    },
    {
      "inputs": [],
      "name": "symbol",
      "outputs": [
        {
          "internalType": "string",
          "name": "",
          "type": "string"
        }
      ],
      "stateMutability": "view",
      "type": "function"
    },
    {
      "inputs": [
        {
          "internalType": "uint256",
          "name": "index",
          "type": "uint256"
        }
      ],
      "name": "tokenByIndex",
      "outputs": [
        {
          "internalType": "uint256",
          "name": "",
          "type": "uint256"
        }
      ],
      "stateMutability": "view",
      "type": "function"
    },
    {
      "inputs": [
        {
          "internalType": "address",
          "name": "owner",
          "type": "address"
        },
        {
          "internalType": "uint256",
          "name": "index",
          "type": "uint256"
        }
      ],
      "name": "tokenOfOwnerByIndex",
      "outputs": [
        {
          "internalType": "uint256",
          "name": "",
          "type": "uint256"
        }
      ],
      "stateMutability": "view",
      "type": "function"
    },
    {
      "inputs": [
        {
          "internalType": "uint256",
          "name": "tokenId",
          "type": "uint256"
        }
      ],
      "name": "tokenURI",
      "outputs": [
        {
          "internalType": "string",
          "name": "",
          "type": "string"
        }
      ],
      "stateMutability": "view",
      "type": "function"
    },
    {
      "inputs": [],
      "name": "totalCollateral",
      "outputs": [
        {
          "internalType": "uint256",
          "name": "",
          "type": "uint256"
        }
      ],
      "stateMutability": "view",
      "type": "function"
    },
    {
      "inputs": [],
      "name": "totalDebt",
      "outputs": [
        {
          "internalType": "uint256",
          "name": "",
          "type": "uint256"
        }
      ],
      "stateMutability": "view",
      "type": "function"
    },
    {
      "inputs": [],
      "name": "totalFee",
      "outputs": [
        {
          "internalType": "uint256",
          "name": "",
          "type": "uint256"
        }
      ],
      "stateMutability": "view",
      "type": "function"
    },
    {
      "inputs": [],
      "name": "totalSupply",
      "outputs": [
        {
          "internalType": "uint256",
          "name": "",
          "type": "uint256"
        }
      ],
      "stateMutability": "view",
      "type": "function"
    },
    {
      "inputs": [
        {
          "internalType": "address",
          "name": "from",
          "type": "address"
        },
        {
          "internalType": "address",
          "name": "to",
          "type": "address"
        },
        {
          "internalType": "uint256",
          "name": "tokenId",
          "type": "uint256"
        }
      ],
      "name": "transferFrom",
      "outputs": [],
      "stateMutability": "nonpayable",
      "type": "function"
    },
    {
      "inputs": [
        {
          "internalType": "address",
          "name": "newOwner",
          "type": "address"
        }
      ],
      "name": "transferOwnership",
      "outputs": [],
      "stateMutability": "nonpayable",
      "type": "function"
    },
    {
      "inputs": [],
      "name": "unpause",
      "outputs": [],
      "stateMutability": "nonpayable",
      "type": "function"
    },
    {
      "inputs": [
        {
          "internalType": "uint256",
          "name": "newCollateralPrice",
          "type": "uint256"
        },
        {
          "internalType": "uint256",
          "name": "confidence",
          "type": "uint256"
        }
      ],
      "name": "updateCollateralPrice",
      "outputs": [],
      "stateMutability": "nonpayable",
      "type": "function"
    },
    {
      "inputs": [
        {
          "internalType": "uint256",
          "name": "id_",
          "type": "uint256"
        }
      ],
      "name": "updateFee",
      "outputs": [
        {
          "internalType": "uint256",
          "name": "additionalFee",
          "type": "uint256"
        }
      ],
      "stateMutability": "nonpayable",
      "type": "function"
    },
    {
      "inputs": [
        {
          "internalType": "address",
          "name": "newOracleFeeder",
          "type": "address"
        }
      ],
      "name": "updateOracleFeeder",
      "outputs": [],
      "stateMutability": "nonpayable",
      "type": "function"
    },
    {
      "inputs": [
        {
          "internalType": "uint256",
          "name": "id_",
          "type": "uint256"
        },
        {
          "internalType": "uint256",
          "name": "amount_",
          "type": "uint256"
        }
      ],
      "name": "withdraw",
      "outputs": [],
      "stateMutability": "nonpayable",
      "type": "function"
    }
  ],
  "bytecode": "0x60c0604052617530600c553480156200001757600080fd5b5060405162004175380380620041758339810160408190526200003a91620002e2565b8a8a8a8a8a8a8a8a8a8a8a888b8b81600090805190602001906200006092919062000152565b5080516200007690600190602084019062000152565b5050600a805460ff19169055506200008e33620000f8565b600b80546001600160a01b03199081166001600160a01b0393841617909155600f8054909116998216999099179098559587166080529390951660a052600d91909155600e55601092909255601191909155601355506200040d9c50505050505050505050505050565b600a80546001600160a01b03838116610100818102610100600160a81b031985161790945560405193909204169182907f8be0079c531659141344cd1fd0a4f28419497f9722a3daafe3b4186f6b6457e090600090a35050565b8280546200016090620003d0565b90600052602060002090601f016020900481019282620001845760008555620001cf565b82601f106200019f57805160ff1916838001178555620001cf565b82800160010185558215620001cf579182015b82811115620001cf578251825591602001919060010190620001b2565b50620001dd929150620001e1565b5090565b5b80821115620001dd5760008155600101620001e2565b634e487b7160e01b600052604160045260246000fd5b600082601f8301126200022057600080fd5b81516001600160401b03808211156200023d576200023d620001f8565b604051601f8301601f19908116603f01168101908282118183101715620002685762000268620001f8565b816040528381526020925086838588010111156200028557600080fd5b600091505b83821015620002a957858201830151818301840152908201906200028a565b83821115620002bb5760008385830101525b9695505050505050565b80516001600160a01b0381168114620002dd57600080fd5b919050565b60008060008060008060008060008060006101608c8e0312156200030557600080fd5b8b516001600160401b038111156200031c57600080fd5b6200032a8e828f016200020e565b60208e0151909c5090506001600160401b038111156200034957600080fd5b620003578e828f016200020e565b9a50506200036860408d01620002c5565b98506200037860608d01620002c5565b97506200038860808d01620002c5565b96506200039860a08d01620002c5565b955060c08c0151945060e08c015193506101008c015192506101208c015191506101408c015190509295989b509295989b9093969950565b600181811c90821680620003e557607f821691505b602082108114156200040757634e487b7160e01b600052602260045260246000fd5b50919050565b60805160a051613ce76200048e6000396000818161088c01528181611cd201528181611d9d0152818161238c015281816123c50152818161241101528181612451015281816124cb01526125e8015260008181610702015281816116c401528181612001015281816120a5015281816126cf01526129460152613ce76000f3fe608060405234801561001057600080fd5b50600436106103d05760003560e01c806370a08231116101ff578063be9757a01161011a578063ee50e50b116100ad578063f46901ed1161007c578063f46901ed14610877578063f8d898981461088a578063fc7b9c18146108b0578063fcfff16f146108b957600080fd5b8063ee50e50b14610835578063efb2654d14610848578063f2fde38b1461085b578063f384bd051461086e57600080fd5b8063d8aed145116100e9578063d8aed145146107cb578063dd8a04b3146107de578063e2bbb158146107e6578063e985e9c5146107f957600080fd5b8063be9757a01461077f578063c87b56dd14610792578063cca3ad6f146107a5578063d296d1f1146107b857600080fd5b8063a70a836b11610192578063babe7c7411610161578063babe7c7414610739578063bb23c73714610746578063bc61c46014610759578063bc71054e1461076c57600080fd5b8063a70a836b146106cf578063af640d0f146106f7578063b2016bd414610700578063b88d4fde1461072657600080fd5b80639012c4a8116101ce5780639012c4a81461068e57806395d89b41146106a15780639760a42b146106a9578063a22cb465146106bc57600080fd5b806370a0823114610655578063715018a6146106685780638456cb59146106705780638da5cb5b1461067857600080fd5b80632e2ddd45116102ef57806347786d37116102825780635803d145116102515780635803d1451461061c5780635891de721461062f5780635c975abb146106375780636352211e1461064257600080fd5b806347786d37146105da5780634ac8eb5f146105ed5780634cb9c24a146105f65780634f6ccce71461060957600080fd5b8063355274ea116102be578063355274ea146105a35780633f4ba83a146105ac57806342842e0e146105b4578063441a3e70146105c757600080fd5b80632e2ddd45146105575780632f745c591461056a5780633296af231461057d578063335771141461059057600080fd5b8063134bbd7b116103675780631df4ccfc116103365780631df4ccfc1461051557806323b872dd1461051e578063262daf8e146105315780632905f9cd1461054457600080fd5b8063134bbd7b146104a157806318160ddd146104e7578063191e6f7c146104ef57806319f4ff2f1461050257600080fd5b806308a0c375116103a357806308a0c37514610453578063095ea7b3146104685780630aebeb4e1461047b5780630ecbcdab1461048e57600080fd5b806301ffc9a7146103d557806306fdde03146103fd578063081812fc14610412578063083dd51b1461043d575b600080fd5b6103e86103e336600461366a565b6108c1565b60405190151581526020015b60405180910390f35b6104056108ec565b6040516103f491906136df565b6104256104203660046136f2565b61097e565b6040516001600160a01b0390911681526020016103f4565b6104456109a5565b6040519081526020016103f4565b6104666104613660046136f2565b6109c2565b005b610466610476366004613722565b610a10565b6104666104893660046136f2565b610b2b565b61046661049c36600461374c565b610b6e565b6104b46104af3660046136f2565b610bbb565b6040516103f491908151815260208083015190820152604080830151908201526060918201519181019190915260800190565b600854610445565b6104666104fd36600461374c565b610c96565b6104666105103660046136f2565b610cb7565b61044560185481565b61046661052c36600461376e565b610cfd565b61046661053f3660046137aa565b610d2e565b61044561055236600461374c565b610d42565b6104666105653660046137c5565b610d7a565b610445610578366004613722565b610d9c565b61046661058b3660046136f2565b610e32565b61044561059e3660046136f2565b610e78565b610445600e5481565b610466610ebd565b6104666105c236600461376e565b610ecf565b6104666105d536600461374c565b610eea565b6104666105e83660046136f2565b610f28565b61044560165481565b6103e86106043660046136f2565b610f6e565b6104456106173660046136f2565b610f83565b61046661062a3660046136f2565b611016565b600c54610445565b600a5460ff166103e8565b6104256106503660046136f2565b61105c565b6104456106633660046137aa565b6110bc565b610466611142565b610466611154565b600a5461010090046001600160a01b0316610425565b61044561069c3660046136f2565b611164565b61040561116f565b6104666106b73660046137c5565b61117e565b6104666106ca3660046137ff565b6111d7565b6106e26106dd3660046136f2565b6111e6565b604080519283526020830191909152016103f4565b61044560155481565b7f0000000000000000000000000000000000000000000000000000000000000000610425565b61046661073436600461384c565b6112ae565b6611c37937e08000610445565b6104456107543660046136f2565b6112e0565b61044561076736600461374c565b611311565b61044561077a3660046136f2565b61132e565b61044561078d36600461374c565b6113be565b6104056107a03660046136f2565b6113db565b6104666107b33660046136f2565b61144e565b6104666107c636600461374c565b611494565b6104666107d936600461374c565b61152b565b610445611541565b6104666107f436600461374c565b6115c8565b6103e8610807366004613928565b6001600160a01b03918216600090815260056020908152604080832093909416825291909152205460ff1690565b61044561084336600461374c565b6115e6565b61046661085636600461374c565b611623565b6104666108693660046137aa565b61171d565b610445600d5481565b6104666108853660046137aa565b611793565b7f0000000000000000000000000000000000000000000000000000000000000000610425565b61044560175481565b6104456117f5565b60006001600160e01b0319821663780e9d6360e01b14806108e657506108e682611819565b92915050565b6060600080546108fb9061395b565b80601f01602080910402602001604051908101604052809291908181526020018280546109279061395b565b80156109745780601f1061094957610100808354040283529160200191610974565b820191906000526020600020905b81548152906001019060200180831161095757829003601f168201915b5050505050905090565b600061098982611869565b506000908152600460205260409020546001600160a01b031690565b60006109bd60165460185460175461078d91906139a6565b905090565b6109ca6118c8565b600d80549082905560408051828152602081018490527fe796e9ae748449310fcd1cc6718aab236c9b8d2e0e04dacb232ba564d5b338cc91015b60405180910390a15050565b6000610a1b8261105c565b9050806001600160a01b0316836001600160a01b03161415610a8e5760405162461bcd60e51b815260206004820152602160248201527f4552433732313a20617070726f76616c20746f2063757272656e74206f776e656044820152603960f91b60648201526084015b60405180910390fd5b336001600160a01b0382161480610aaa5750610aaa8133610807565b610b1c5760405162461bcd60e51b815260206004820152603d60248201527f4552433732313a20617070726f76652063616c6c6572206973206e6f7420746f60448201527f6b656e206f776e6572206f7220617070726f76656420666f7220616c6c0000006064820152608401610a85565b610b268383611928565b505050565b80610b3581611996565b503382610b428282611abc565b610b5e5760405162461bcd60e51b8152600401610a85906139be565b610b683385611b3b565b50505050565b81610b7881611996565b50610b81611bfd565b3383610b8d8282611abc565b610ba95760405162461bcd60e51b8152600401610a85906139be565b610bb4338686611c43565b5050505050565b610be66040518060800160405280600081526020016000815260200160008152602001600081525090565b6000828152601460209081526040918290208251608081018452815481526001820154928101929092526002810154928201929092526003909101546060820152610c3561271061016d613a0e565b610c40906018613a0e565b610c4b90603c613a0e565b610c5690603c613a0e565b6010546060830151610c689042613a2d565b8360200151610c779190613a0e565b610c819190613a0e565b610c8b9190613a44565b604082015292915050565b81610ca081611996565b50610ca9611ed5565b610b26338484600080611f1e565b610cbf6118c8565b601080549082905560408051828152602081018490527f249ce3aa19ca005081b3e7143ee5f00395d8ac801e1fd05ec532b214a56420f99101610a04565b610d073382611abc565b610d235760405162461bcd60e51b8152600401610a8590613a66565b610b26838383612127565b610d366118c8565b610d3f81612298565b50565b6000610d5061271080613a0e565b82600c5485610d5f9190613a0e565b610d699190613a0e565b610d739190613a44565b9392505050565b82610d8481611996565b5033610d918186866122f2565b610bb4818685612681565b6000610da7836110bc565b8210610e095760405162461bcd60e51b815260206004820152602b60248201527f455243373231456e756d657261626c653a206f776e657220696e646578206f7560448201526a74206f6620626f756e647360a81b6064820152608401610a85565b506001600160a01b03919091166000908152600660209081526040808320938352929052205490565b610e3a6118c8565b601380549082905560408051828152602081018490527f0aa2054351d9389e87b38a613dd2d616351b5773ad459cd962ae13ab58be09799101610a04565b60006015548210610e8b57506000919050565b6000610e9683610bbb565b9050610eb481600001518260400151836020015161078d91906139a6565b9150505b919050565b610ec56118c8565b610ecd61280f565b565b610b26838383604051806020016040528060008152506112ae565b81610ef481611996565b503383610f018282611abc565b610f1d5760405162461bcd60e51b8152600401610a85906139be565b610bb4338686612681565b610f306118c8565b600e80549082905560408051828152602081018490527fdbbbb176683582b710ef3349793b8d62658724a9d9b54deccf193c4b0aa90c4c9101610a04565b6000612710610f7c8361132e565b1092915050565b6000610f8e60085490565b8210610ff15760405162461bcd60e51b815260206004820152602c60248201527f455243373231456e756d657261626c653a20676c6f62616c20696e646578206f60448201526b7574206f6620626f756e647360a01b6064820152608401610a85565b6008828154811061100457611004613ab3565b90600052602060002001549050919050565b61101e6118c8565b601280549082905560408051828152602081018490527fc50c6d38ff6cccebc793f34d953bfd12a87b9f7301f5df58df875d3eebf1d67a9101610a04565b6000818152600260205260408120546001600160a01b0316806108e65760405162461bcd60e51b8152602060048201526018602482015277115490cdcc8c4e881a5b9d985b1a59081d1bdad95b88125160421b6044820152606401610a85565b60006001600160a01b0382166111265760405162461bcd60e51b815260206004820152602960248201527f4552433732313a2061646472657373207a65726f206973206e6f7420612076616044820152683634b21037bbb732b960b91b6064820152608401610a85565b506001600160a01b031660009081526003602052604090205490565b61114a6118c8565b610ecd6000612861565b61115c6118c8565b610ecd6128bb565b60006108e682611996565b6060600180546108fb9061395b565b611186611bfd565b8261119081611996565b50338461119d8282611abc565b6111b95760405162461bcd60e51b8152600401610a85906139be565b6111c43387876128f8565b6111cf338786611c43565b505050505050565b6111e2338383612a10565b5050565b60008060006111f484610bbb565b90506127108060125460115461120a91906139a6565b61121491906139a6565b600d546112219190613a0e565b61122d61271080613a0e565b6112379190613a2d565b6112419190613a0e565b61271060135461125191906139a6565b600c548351600d546112639190613a0e565b61126d9190613a0e565b602084015161127e61271080613a0e565b6112889190613a0e565b6112929190613a2d565b61129c9190613a0e565b6112a69190613a44565b925050915091565b6112b83383611abc565b6112d45760405162461bcd60e51b8152600401610a8590613a66565b610b6884848484612adf565b60006112ea611bfd565b336112f481612b12565b91506112ff82611996565b5061130b8183856128f8565b50919050565b6000600c54826113219190613a0e565b612710610d5f8186613a0e565b60008061133a83610bbb565b805190915061135f5760208101516113555750600092915050565b5061271092915050565b600d54600c5482516113719190613a0e565b61137b9190613a0e565b612710806127108460400151856020015161139691906139a6565b6113a09190613a0e565b6113aa9190613a0e565b6113b49190613a0e565b610eb49190613a44565b6000600c54836113ce9190613a0e565b612710610d5f8185613a0e565b60606113e682611869565b60006113fd60408051602081019091526000815290565b9050600081511161141d5760405180602001604052806000815250610eb4565b8061142784612b97565b604051602001611438929190613ac9565b6040516020818303038152906040529392505050565b6114566118c8565b601180549082905560408051828152602081018490527f2a77c2062e3e532581748c9dc351926d201b893d8292f4f6aedfd03ec77c2acf9101610a04565b8161149e81611996565b506000806114ab856111e6565b915091508381111580156114bf5750818411155b61151a5760405162461bcd60e51b815260206004820152602660248201527f4344503a3a6c69717569646174653a20616d6f756e74202d206f7574206f66206044820152653930b733b29760d11b6064820152608401610a85565b610bb4338686601154601254611f1e565b8161153581611996565b50610b263384846122f2565b60006016546000141580156115575750600c5415155b80156115645750600d5415155b156115c557600d54600c5460165461157c9190613a0e565b6115869190613a0e565b6127108061271060185460175461159d91906139a6565b6115a79190613a0e565b6115b19190613a0e565b6115bb9190613a0e565b6109bd9190613a44565b90565b816115d281611996565b506115db611bfd565b610b263384846128f8565b60006115f0611bfd565b336115fa81612b12565b915061160582611996565b506116118183866128f8565b61161c818385611c43565b5092915050565b600b546001600160a01b0316336001600160a01b0316146116ac5760405162461bcd60e51b815260206004820152603f60248201527f4f7261636c653a3a6f6e6c794f7261636c654665656465723a2053656e64657260448201527f206d7573742062652073616d65206173205f6f7261636c654665656465722e006064820152608401610a85565b600c80549083905560408051828152602081018590527f00000000000000000000000000000000000000000000000000000000000000006001600160a01b0316917f7c3bda8adcb9df1edd0059da351d966538bcc99f067c0770872170ac97fb6887910160405180910390a2505050565b6117256118c8565b6001600160a01b03811661178a5760405162461bcd60e51b815260206004820152602660248201527f4f776e61626c653a206e6577206f776e657220697320746865207a65726f206160448201526564647265737360d01b6064820152608401610a85565b610d3f81612861565b61179b6118c8565b600f80546001600160a01b038381166001600160a01b031983168117909355604080519190921680825260208201939093527f41d2755f00068d89c23ebc6f1e73ce119a6236a44517ca061f544a3f91c9bca49101610a04565b600080611800611bfd565b61180933612b12565b915061181481611996565b505090565b60006001600160e01b031982166380ac58cd60e01b148061184a57506001600160e01b03198216635b5e139f60e01b145b806108e657506301ffc9a760e01b6001600160e01b03198316146108e6565b6000818152600260205260409020546001600160a01b0316610d3f5760405162461bcd60e51b8152602060048201526018602482015277115490cdcc8c4e881a5b9d985b1a59081d1bdad95b88125160421b6044820152606401610a85565b600a546001600160a01b03610100909104163314610ecd5760405162461bcd60e51b815260206004820181905260248201527f4f776e61626c653a2063616c6c6572206973206e6f7420746865206f776e65726044820152606401610a85565b600081815260046020526040902080546001600160a01b0319166001600160a01b038416908117909155819061195d8261105c565b6001600160a01b03167f8c5be1e5ebec7d5bd14f71427d1e84f3dd0314c0f7b2291e5b200ac8c7c3b92560405160405180910390a45050565b600f546000906001600160a01b03166119b157506000919050565b6000828152601460205260409020600381015460028201546119d761271061016d613a0e565b6119e2906018613a0e565b6119ed90603c613a0e565b6119f890603c613a0e565b601054611a058442613a2d565b8560010154611a149190613a0e565b611a1e9190613a0e565b611a289190613a44565b935083836002016000828254611a3e91906139a6565b925050819055508360186000828254611a5791906139a6565b9091555050426003840181905560028401546040805184815260208101929092528101849052606081019190915285907f058060763f0c6ae3b30d3624dbb6899601ed67b215a0b7591707778c7218db2f9060800160405180910390a2505050919050565b600080611ac88361105c565b9050806001600160a01b0316846001600160a01b03161480611b0f57506001600160a01b0380821660009081526005602090815260408083209388168352929052205460ff165b80611b335750836001600160a01b0316611b288461097e565b6001600160a01b0316145b949350505050565b60008181526014602052604090206001810154151580611b5e5750600281015415155b15611b8157611b81838383600201548460010154611b7c91906139a6565b6122f2565b805415611b9757611b9783838360000154612681565b611ba082612c34565b60008281526014602052604080822082815560018101839055600281018390556003018290555183916001600160a01b038616917f684222b0069d4a2e5e0d986611cc5182d543904c4e4264bf770d4e51faefc8229190a3505050565b600a5460ff1615610ecd5760405162461bcd60e51b815260206004820152601060248201526f14185d5cd8589b194e881c185d5cd95960821b6044820152606401610a85565b612710611c4e611541565b10611c6b5760405162461bcd60e51b8152600401610a8590613af8565b600082815260146020526040812060018101805491928492611c8e9084906139a6565b925050819055508160176000828254611ca791906139a6565b90915550506040516308934a5f60e31b81526001600160a01b038581166004830152602482018490527f0000000000000000000000000000000000000000000000000000000000000000169063449a52f890604401600060405180830381600087803b158015611d1657600080fd5b505af1158015611d2a573d6000803e3d6000fd5b50505050611d3783610f6e565b611d985760405162461bcd60e51b815260206004820152602c60248201527f4344503a3a5f626f72726f773a20434450206f7065726174696f6e206578636560448201526b32b2399036b0bc10262a2b1760a11b6064820152608401610a85565b600e547f00000000000000000000000000000000000000000000000000000000000000006001600160a01b03166318160ddd6040518163ffffffff1660e01b815260040160206040518083038186803b158015611df457600080fd5b505afa158015611e08573d6000803e3d6000fd5b505050506040513d601f19601f82011682018060405250810190611e2c9190613b3d565b1115611e8b5760405162461bcd60e51b815260206004820152602860248201527f4344503a3a5f626f72726f773a2043616e6e6f7420626f72726f772053494e2060448201526730b73cb6b7b9329760c11b6064820152608401610a85565b82846001600160a01b03167fe1979fe4c35e0cef342fef5668e2c8e7a7e9f5d5d1ca8fee0ac6c427fa4153af84604051611ec791815260200190565b60405180910390a350505050565b600a5460ff16610ecd5760405162461bcd60e51b815260206004820152601460248201527314185d5cd8589b194e881b9bdd081c185d5cd95960621b6044820152606401610a85565b611f2784610f6e565b15611f805760405162461bcd60e51b815260206004820152602360248201527f4344503a3a6c69717569646174653a20434450206d75737420626520756e736160448201526233329760e91b6064820152608401610a85565b611f8b8585856122f2565b6000848152601460205260408120600c54909190611fab856127106139a6565b611fb59087613a0e565b611fbf9190613a44565b905080826000016000828254611fd59190613a2d565b925050819055508060166000828254611fee9190613a2d565b9091555061202890506001600160a01b037f0000000000000000000000000000000000000000000000000000000000000000168883612cd7565b600f546000906001600160a01b03161580159061204457508315155b156120ce576127106120568588613a0e565b6120609190613a44565b9050808360000160008282546120769190613a2d565b92505081905550806016600082825461208f9190613a2d565b9091555050600f546120ce906001600160a01b037f00000000000000000000000000000000000000000000000000000000000000008116911683612cd7565b866001600160a01b0389167f158ba9ab7bbbd08eeffa4753bad41f4d450e24831d293427308badf3eadd8c768861210585876139a6565b6040805192835260208301919091520160405180910390a35050505050505050565b826001600160a01b031661213a8261105c565b6001600160a01b0316146121605760405162461bcd60e51b8152600401610a8590613b56565b6001600160a01b0382166121c25760405162461bcd60e51b8152602060048201526024808201527f4552433732313a207472616e7366657220746f20746865207a65726f206164646044820152637265737360e01b6064820152608401610a85565b6121cf8383836001612d3a565b826001600160a01b03166121e28261105c565b6001600160a01b0316146122085760405162461bcd60e51b8152600401610a8590613b56565b600081815260046020908152604080832080546001600160a01b03199081169091556001600160a01b0387811680865260038552838620805460001901905590871680865283862080546001019055868652600290945282852080549092168417909155905184937fddf252ad1be2c89b69c2b068fc378daa952ba7f163c4a11628f55a4df523b3ef91a4505050565b600b80546001600160a01b038381166001600160a01b031983168117909355604080519190921680825260208201939093527f6b2e9b3836edd552e454031d349dbf020544e4123c344f1ddb0a7a9a336adef99101610a04565b6000828152601460205260409020600f546001600160a01b03161580159061231d5750600281015415155b1561259057600f5460028201546001600160a01b039091169083116123ed57828260020160008282546123509190613a2d565b9250508190555082601860008282546123699190613a2d565b90915550506001600160a01b0385163014156123b8576123b36001600160a01b037f0000000000000000000000000000000000000000000000000000000000000000168285612cd7565b61258a565b6123b36001600160a01b037f000000000000000000000000000000000000000000000000000000000000000016868386612e67565b6001600160a01b03851630141561243e576002820154612439906001600160a01b037f000000000000000000000000000000000000000000000000000000000000000016908390612cd7565b61247b565b600282015461247b906001600160a01b037f0000000000000000000000000000000000000000000000000000000000000000169087908490612e67565b600282015461248a9084613a2d565b82600101600082825461249d9190613a2d565b909155505060028201546124b19084613a2d565b601760008282546124c29190613a2d565b925050819055507f00000000000000000000000000000000000000000000000000000000000000006001600160a01b03166379cc6790868460020154866125099190613a2d565b6040516001600160e01b031960e085901b1681526001600160a01b0390921660048301526024820152604401600060405180830381600087803b15801561254f57600080fd5b505af1158015612563573d6000803e3d6000fd5b5050505081600201546018600082825461257d9190613a2d565b9091555050600060028301555b50612645565b818160010160008282546125a49190613a2d565b9250508190555081601760008282546125bd9190613a2d565b909155505060405163079cc67960e41b81526001600160a01b038581166004830152602482018490527f000000000000000000000000000000000000000000000000000000000000000016906379cc679090604401600060405180830381600087803b15801561262c57600080fd5b505af1158015612640573d6000803e3d6000fd5b505050505b82846001600160a01b03167f77c6871227e5d2dec8dadd5354f78453203e22e669cd0ec4c19d9a8c5edb31d084604051611ec791815260200190565b60008281526014602052604081208054909183918391906126a3908490613a2d565b9250508190555081601660008282546126bc9190613a2d565b909155506126f690506001600160a01b037f0000000000000000000000000000000000000000000000000000000000000000168584612cd7565b6126ff83610f6e565b6127625760405162461bcd60e51b815260206004820152602e60248201527f4344503a3a5f77697468647261773a20434450206f7065726174696f6e20657860448201526d31b2b2b2399036b0bc10262a2b1760911b6064820152608401610a85565b80541580612778575080546611c37937e0800011155b6127d35760405162461bcd60e51b815260206004820152602660248201527f4344503a3a5f77697468647261773a204e6f7420656e6f75676820636f6c6c616044820152653a32b930b61760d11b6064820152608401610a85565b82846001600160a01b03167ff279e6a1f5e320cca91135676d9cb6e44ca8a08c0b88342bcdb1144f6511b56884604051611ec791815260200190565b612817611ed5565b600a805460ff191690557f5db9ee0a495bf2e6ff9c91a7834c1ba4fdd244a5e8aa4e537bd38aeae4b073aa335b6040516001600160a01b03909116815260200160405180910390a1565b600a80546001600160a01b03838116610100818102610100600160a81b031985161790945560405193909204169182907f8be0079c531659141344cd1fd0a4f28419497f9722a3daafe3b4186f6b6457e090600090a35050565b6128c3611bfd565b600a805460ff191660011790557f62e78cea01bee320cd4e420270b5ea74000d11b0c9f74754ebdbfc544b05a2586128443390565b600082815260146020526040812080549091839183919061291a9084906139a6565b92505081905550816016600082825461293391906139a6565b9091555061296e90506001600160a01b037f000000000000000000000000000000000000000000000000000000000000000016853085612e67565b80546611c37937e0800011156129d45760405162461bcd60e51b815260206004820152602560248201527f4344503a3a5f6465706f7369743a204e6f7420656e6f75676820636f6c6c617460448201526432b930b61760d91b6064820152608401610a85565b82846001600160a01b03167f90890809c654f11d6e72a28fa60149770a0d11ec6c92319d6ceb2bb0a4ea1a1584604051611ec791815260200190565b816001600160a01b0316836001600160a01b03161415612a725760405162461bcd60e51b815260206004820152601960248201527f4552433732313a20617070726f766520746f2063616c6c6572000000000000006044820152606401610a85565b6001600160a01b03838116600081815260056020908152604080832094871680845294825291829020805460ff191686151590811790915591519182527f17307eab39ab6107e8899845ad3d59bd9653f200f220920489ca2b5937696c31910160405180910390a3505050565b612aea848484612127565b612af684848484612e9f565b610b685760405162461bcd60e51b8152600401610a8590613b9b565b6000612710612b1f611541565b10612b3c5760405162461bcd60e51b8152600401610a8590613af8565b60158054906000612b4c83613bed565b919050559050612b5c8282612fac565b60405181906001600160a01b038416907f50042401acb675fedd6dd939fccc629832ce60fa4185df25c01b20e8def195bf90600090a3919050565b60606000612ba483612fc6565b600101905060008167ffffffffffffffff811115612bc457612bc4613836565b6040519080825280601f01601f191660200182016040528015612bee576020820181803683370190505b5090508181016020015b600019016f181899199a1a9b1b9c1cb0b131b232b360811b600a86061a8153600a8504945084612c2757612c2c565b612bf8565b509392505050565b6000612c3f8261105c565b9050612c4f816000846001612d3a565b612c588261105c565b600083815260046020908152604080832080546001600160a01b03199081169091556001600160a01b0385168085526003845282852080546000190190558785526002909352818420805490911690555192935084927fddf252ad1be2c89b69c2b068fc378daa952ba7f163c4a11628f55a4df523b3ef908390a45050565b6040516001600160a01b038316602482015260448101829052610b2690849063a9059cbb60e01b906064015b60408051601f198184030181529190526020810180516001600160e01b03166001600160e01b03199093169290921790915261309e565b6001811115612da95760405162461bcd60e51b815260206004820152603560248201527f455243373231456e756d657261626c653a20636f6e7365637574697665207472604482015274185b9cd9995c9cc81b9bdd081cdd5c1c1bdc9d1959605a1b6064820152608401610a85565b816001600160a01b038516612e0557612e0081600880546000838152600960205260408120829055600182018355919091527ff3f7a9fe364faab93b216da50a3214154f22a0a2b415b23a84c8169e8b636ee30155565b612e28565b836001600160a01b0316856001600160a01b031614612e2857612e288582613173565b6001600160a01b038416612e4457612e3f81613210565b610bb4565b846001600160a01b0316846001600160a01b031614610bb457610bb484826132bf565b6040516001600160a01b0380851660248301528316604482015260648101829052610b689085906323b872dd60e01b90608401612d03565b60006001600160a01b0384163b15612fa157604051630a85bd0160e11b81526001600160a01b0385169063150b7a0290612ee3903390899088908890600401613c08565b602060405180830381600087803b158015612efd57600080fd5b505af1925050508015612f2d575060408051601f3d908101601f19168201909252612f2a91810190613c45565b60015b612f87573d808015612f5b576040519150601f19603f3d011682016040523d82523d6000602084013e612f60565b606091505b508051612f7f5760405162461bcd60e51b8152600401610a8590613b9b565b805181602001fd5b6001600160e01b031916630a85bd0160e11b149050611b33565b506001949350505050565b6111e2828260405180602001604052806000815250613303565b60008072184f03e93ff9f4daa797ed6e38ed64bf6a1f0160401b83106130055772184f03e93ff9f4daa797ed6e38ed64bf6a1f0160401b830492506040015b6d04ee2d6d415b85acef81000000008310613031576d04ee2d6d415b85acef8100000000830492506020015b662386f26fc10000831061304f57662386f26fc10000830492506010015b6305f5e1008310613067576305f5e100830492506008015b612710831061307b57612710830492506004015b6064831061308d576064830492506002015b600a83106108e65760010192915050565b60006130f3826040518060400160405280602081526020017f5361666545524332303a206c6f772d6c6576656c2063616c6c206661696c6564815250856001600160a01b03166133369092919063ffffffff16565b90508051600014806131145750808060200190518101906131149190613c62565b610b265760405162461bcd60e51b815260206004820152602a60248201527f5361666545524332303a204552433230206f7065726174696f6e20646964206e6044820152691bdd081cdd58d8d9595960b21b6064820152608401610a85565b60006001613180846110bc565b61318a9190613a2d565b6000838152600760205260409020549091508082146131dd576001600160a01b03841660009081526006602090815260408083208584528252808320548484528184208190558352600790915290208190555b5060009182526007602090815260408084208490556001600160a01b039094168352600681528383209183525290812055565b60085460009061322290600190613a2d565b6000838152600960205260408120546008805493945090928490811061324a5761324a613ab3565b90600052602060002001549050806008838154811061326b5761326b613ab3565b60009182526020808320909101929092558281526009909152604080822084905585825281205560088054806132a3576132a3613c7f565b6001900381819060005260206000200160009055905550505050565b60006132ca836110bc565b6001600160a01b039093166000908152600660209081526040808320868452825280832085905593825260079052919091209190915550565b61330d8383613345565b61331a6000848484612e9f565b610b265760405162461bcd60e51b8152600401610a8590613b9b565b6060611b3384846000856134de565b6001600160a01b03821661339b5760405162461bcd60e51b815260206004820181905260248201527f4552433732313a206d696e7420746f20746865207a65726f20616464726573736044820152606401610a85565b6000818152600260205260409020546001600160a01b0316156134005760405162461bcd60e51b815260206004820152601c60248201527f4552433732313a20746f6b656e20616c7265616479206d696e746564000000006044820152606401610a85565b61340e600083836001612d3a565b6000818152600260205260409020546001600160a01b0316156134735760405162461bcd60e51b815260206004820152601c60248201527f4552433732313a20746f6b656e20616c7265616479206d696e746564000000006044820152606401610a85565b6001600160a01b038216600081815260036020908152604080832080546001019055848352600290915280822080546001600160a01b0319168417905551839291907fddf252ad1be2c89b69c2b068fc378daa952ba7f163c4a11628f55a4df523b3ef908290a45050565b60608247101561353f5760405162461bcd60e51b815260206004820152602660248201527f416464726573733a20696e73756666696369656e742062616c616e636520666f6044820152651c8818d85b1b60d21b6064820152608401610a85565b600080866001600160a01b0316858760405161355b9190613c95565b60006040518083038185875af1925050503d8060008114613598576040519150601f19603f3d011682016040523d82523d6000602084013e61359d565b606091505b50915091506135ae878383876135b9565b979650505050505050565b6060831561362557825161361e576001600160a01b0385163b61361e5760405162461bcd60e51b815260206004820152601d60248201527f416464726573733a2063616c6c20746f206e6f6e2d636f6e74726163740000006044820152606401610a85565b5081611b33565b611b33838381511561363a5781518083602001fd5b8060405162461bcd60e51b8152600401610a8591906136df565b6001600160e01b031981168114610d3f57600080fd5b60006020828403121561367c57600080fd5b8135610d7381613654565b60005b838110156136a257818101518382015260200161368a565b83811115610b685750506000910152565b600081518084526136cb816020860160208601613687565b601f01601f19169290920160200192915050565b602081526000610d7360208301846136b3565b60006020828403121561370457600080fd5b5035919050565b80356001600160a01b0381168114610eb857600080fd5b6000806040838503121561373557600080fd5b61373e8361370b565b946020939093013593505050565b6000806040838503121561375f57600080fd5b50508035926020909101359150565b60008060006060848603121561378357600080fd5b61378c8461370b565b925061379a6020850161370b565b9150604084013590509250925092565b6000602082840312156137bc57600080fd5b610d738261370b565b6000806000606084860312156137da57600080fd5b505081359360208301359350604090920135919050565b8015158114610d3f57600080fd5b6000806040838503121561381257600080fd5b61381b8361370b565b9150602083013561382b816137f1565b809150509250929050565b634e487b7160e01b600052604160045260246000fd5b6000806000806080858703121561386257600080fd5b61386b8561370b565b93506138796020860161370b565b925060408501359150606085013567ffffffffffffffff8082111561389d57600080fd5b818701915087601f8301126138b157600080fd5b8135818111156138c3576138c3613836565b604051601f8201601f19908116603f011681019083821181831017156138eb576138eb613836565b816040528281528a602084870101111561390457600080fd5b82602086016020830137600060208483010152809550505050505092959194509250565b6000806040838503121561393b57600080fd5b6139448361370b565b91506139526020840161370b565b90509250929050565b600181811c9082168061396f57607f821691505b6020821081141561130b57634e487b7160e01b600052602260045260246000fd5b634e487b7160e01b600052601160045260246000fd5b600082198211156139b9576139b9613990565b500190565b60208082526030908201527f4344503a3a6f6e6c79436470417070726f7665644f724f776e65723a204e6f7460408201526f1030903b30b634b21031b0b63632b91760811b606082015260800190565b6000816000190483118215151615613a2857613a28613990565b500290565b600082821015613a3f57613a3f613990565b500390565b600082613a6157634e487b7160e01b600052601260045260246000fd5b500490565b6020808252602d908201527f4552433732313a2063616c6c6572206973206e6f7420746f6b656e206f776e6560408201526c1c881bdc88185c1c1c9bdd9959609a1b606082015260800190565b634e487b7160e01b600052603260045260246000fd5b60008351613adb818460208801613687565b835190830190613aef818360208801613687565b01949350505050565b60208082526025908201527f4344503a3a6f6e6c79476c6f62616c6c794865616c7468793a204e6f7420686560408201526430b63a3c9760d91b606082015260800190565b600060208284031215613b4f57600080fd5b5051919050565b60208082526025908201527f4552433732313a207472616e736665722066726f6d20696e636f72726563742060408201526437bbb732b960d91b606082015260800190565b60208082526032908201527f4552433732313a207472616e7366657220746f206e6f6e20455243373231526560408201527131b2b4bb32b91034b6b83632b6b2b73a32b960711b606082015260800190565b6000600019821415613c0157613c01613990565b5060010190565b6001600160a01b0385811682528416602082015260408101839052608060608201819052600090613c3b908301846136b3565b9695505050505050565b600060208284031215613c5757600080fd5b8151610d7381613654565b600060208284031215613c7457600080fd5b8151610d73816137f1565b634e487b7160e01b600052603160045260246000fd5b60008251613ca7818460208701613687565b919091019291505056fea2646970667358221220f160a827a8f64027ac048a83155e45e6ef1d3b85bd199d8043e1ee0a9f50a5ff64736f6c63430008090033",
  "linkReferences": {},
  "deployedLinkReferences": {}
}